:10000000E040002095B3000001CA011001CA0110B0
:1000100001CA011001CA011001CA011001CA011070
:1000200001CA011001CA011001CA011001CA011060
:0C00300001CA011001CA01103FCA0110F2
:10003C000000000062F30F2262F31F42401810F020
:10004C00030308D0C91A1FD3DB0748BF00F8012DE2
:10005C0028BF20F8022D130030B414461546103971
:10006C0028BF20E93C00FAD8490728BF20E90C003A
:10007C0048BF40F8042D890028BF20F8022D48BF46
:10008C0000F8012D30BC7047C91818BF00F8012DBD
:10009C00CB0728BF00F8012D70470000002202F0AA
:1000AC007DB87047C1F30A5240F2FF739A420AD0EE
:1000BC0012B14FF0FF307047090350EA113009D0EC
:1000CC006FF001007047090350EA113001D0022093
:1000DC007047012070470000EFF3108072B6704734
:1000EC00EFF3108062B670470138FDD1704770474E
:100100003C0000000000000000000000340100007E
:1001100000000000000000000100000000000000DE
:1001200000000000000000000000000001000000CE
:0C013000000000000800000000000000BB
:10013C003400000000000000000000006801000016
:10014C0000000000000000000100000000000000A2
:10015C00010000000000000000000000080000008A
:04016C00000000008F
:1001700030000000000000000000000098010000B6
:10018000040000000000000001000000FFFFFFFF6E
:10019000FF00000001000000080000000000000057
:1001A0002C0000000000000000000000C40100005E
:1001B000040000000000000001000000FFFFFFFF3E
:0C01C000FFFFFFFF08000000000000002F
:1001CC0034050000E401000099A1011095A701106D
:1001DC00A5C2011009B2011045B8011000000000C1
:0801EC00000000002E000000DD
:1001F40028000000000000000000000014020000BD
:100204000000000000000000FFFFFFFF00000000EE
:080214000800000000000000DA
:10021C00300500003002000069C201106DC10110F0
:10022C001FC2011095BA0110000000000000000070
:04023C00300000008E
:10024000300500005402000075C20110A9B601106B
:100250009DBF011049B60110000000000000000021
:040260003100000069
:1002640024000000000000000000000080020000E4
:100274000000000000000000000000000800000072
:040284000000000076
:10028800240000000000000000000000A40200009C
:10029800000000000000000000000000080000004E
:0402A8000000000052
:1002AC00240000000000000000000000C802000054
:1002BC000000000001000000000000000800000029
:0402CC00000000002E
:1002D00000000000500700200400000000000000A3
:1002E000000000002000000070010000300000004D
:1002F0001C0200005807002004000000000000005D
:10030000000000000C000000300400001800000095
:100310004002000060070020040000000000000010
:100320000000000024000000480400001800000045
:10033000000000006807002004000000000000002A
:100340000000000010000000A00100002C000000D0
:10035000CC01000070070020040000000000000035
:1003600000000000200000006402000024000000E3
:10037000FFFFFFFF780700200400000000000000DE
:100380000000000028000000880200002400000097
:10039000FFFFFFFF800700200400000000000000B6
:1003A00000000000580000003C0100003400000084
:1003B000FFFFFFFF8807002004000000000000008E
:1003C00000000000100000006004000018000000A1
:1003D000FFFFFFFF90070020040000000000000066
:1003E000000000001C000000AC020000240000001F
:1003F000FFFFFFFF9807002004000000000000003E
:100400000000000038000000F40100002800000097
:10041000FFFFFFFFA0070020040000000000000015
:100420000000000054000000000100003C0000003B
:100430001800000000000000000000004004000060
:080440000800000000000000AC
:100448001800000000000000000000005804000030
:08045800080000000000000094
:100460001800000000000000000000007004000000
:0804700008000000000000007C
:080478000100000004B40000C3
:040480000000000078
:040484000100000073
:0404880000000C0064
:04048C0000000D005F
:040490003200000036
:040494000100000063
:04049800E00600205A
:04049C00000200005A
:0404A0000000000058
:0404A40001CA011078
:0404A8000000000050
:0404AC00000000004C
:0404B0000800000040
:0404B4000000200024
:0404B800F405002027
:0404BC00010000003B
:0404C000F80600201A
:0404C400080000002C
:0404C8000000000030
:0404CC00000000002C
:0404D0000000000028
:0404D4000000000024
:0404D8000000000020
:0404DC00010000001B
:0404E0002C060020C6
:0404E400060000000E
:0404E800010000000F
:0404EC001C050020CB
:0404F0000000000008
:0404F4000000000004
:0404F80000020000FE
:0404FC0000000000FC
:020500000000F9
:020502002A00CD
:020504000100F4
:020506002500CE
:020508003000C1
:02050A003100BE
:02050C002E00BF
:02050E000100EA
:0105100001E9
:0805140004000000D4B3000054
:08051C000000000000000000D7
:0405240000000100D2
:0405280000000300CC
:04052C0087C401106F
:04053000380500008A
:040534003805000086
:0405380000000000BF
:04053C00800000003B
:040540008000000037
:0405440000000000B3
:04054800F806002091
:04054C00EB7D000043
:040550002000000087
:04055400ACB3000044
:04055800E4B100000A
:04055C000DC30110BA
:0405600049740000DA
:040564004B740000D4
:0405680099C801101D
:04056C009BC8011017
:040570000000000087
:04057400A6000000DD
:040578003CAF000094
:04057C0054AF000078
:0405800024AF0000A4
:0205840008006D
:0205860009006A
:02058800010070
:02058A0000006F
:01058C00016D
:040590000000000067
:040594000000000063
:04059800000000005F
:04059C00000000005B
:0405A000457300009F
:0405A4007973000067
:0405A800FD710000E1
:0405AC00B373000025
:0405B0005572000080
:0405B40019720000B8
:0405B800C972000004
:0405BC0001740000C6
:0405C000697D000051
:0405C400677F00004D
:0405C8006B7F000045
:0405CC000800000023
:0405D0002400000003
:0405D400180000000B
:0405D80028000000F7
:0405DC0020000000FB
:0405E0003C000000DB
:0405E4000C00000007
:0405E80034000000DB
:1005EC0070B500F033F808B9102070BD002101601F
:1005FC008480C5808660DFF8B8184A6812B94860F4
:10060C0004E00A4611680029FBD11060002070BD7F
:10061C0070B504460D461646182001F045FB08B986
:10062C00102070BD00210160816004710574466169
:10063C00DFF88018FFE70A6812B9086004E00A4680
:10064C0011680029FBD11060002070BD04460D46D6
:10065C0016460C2001F028BB1FB501248DF8004074
:10066C000AB9062B01DB032901D101200FE001ABF4
:10067C001222002100F0D9FB20B1002201A900A810
:10068C0000F049FD9DF80000012818BF002004B0BF
:10069C0010BD2DE9F04F87B00646884692461C46A1
:1006AC0001F04DFB5FEA000B08BF022030D0514631
:1006BC00304600F003FC05466806DFF8F49707D4D3
:1006CC00D9F8080020B1407E012808BF45F040054C
:1006DC000822002104A801F0F4FA109828B104991A
:1006EC00012060F30101049103E00498800880006C
:1006FC000490DBF8080050B1408800902346049821
:10070C0000F0030251463046FFF7A6FF08B901205E
:10071C006CE0139828B10499ADF8140041F0040171
:10072C0004918DF8174011980028049814BF40F0DC
:10073C00080020F00800049012980028049814BFB8
:10074C0040F0100020F010000490149804998DF8DB
:10075C001600C1F38001032001B10520159C261859
:10076C00B0B201F0A1FA07003ED0049800F00300EB
:10077C0038700499C1F3800140EA81003870049903
:10078C00C1F3C00140EAC10038700499C1F30011F3
:10079C0040EA01103870781C0499C1F3800141B112
:1007AC00BDF8141000F8011BBDF81410090A00F86C
:1007BC00011B22469DF8161001709DF81710417010
:1007CC00801C169901F087FA1E200390029509F1FE
:1007DC000C0001900097B3B252465946404601F0C6
:1007EC00C9FA00F090F800E0102420466BE02DE9E7
:1007FC00F04F87B00446884693461F4600250026D6
:10080C0007E002885946204600F0B7FC4519ADB206
:10081C00761C3878F6B2864210D207EBC600001D63
:10082C00ED1C81780029ADB2F2D141686D1C002914
:10083C00ADB2E6D0C07800F05AFCE7E7284601F0EC
:10084C0033FA5FEA00093CD0CA4600260BE001A946
:10085C000091534602885946204600F0A2FCBDF890
:10086C0004008244761C3878F6B286421BD207EB21
:10087C00C60030F8041F0AF8011B0188090A0AF89F
:10088C00011B81780AF8011B81780029EAD1C17813
:10089C000AF8011B41680029D9D0C078524600F0F3
:1008AC0021FB8246DEE7CDF81890059501231298BE
:1008BC0004905A4600F0D4F80446484601F015FA64
:1008CC0000E01024204607B0BDE8F08F2DE9F0437E
:1008DC001D4687B000F072F807000FD000F05AF8F0
:1008EC00012A02BFA878002801260697B6B2059601
:1008FC00042300F03CF800F006F800E01024204639
:10090C0007B0BDE8F0830446384601F0EEB92DE996
:10091C00F0431D4687B004462878860000F035F871
:10092C00070022D0002110E005EB8102491C9378CE
:10093C0000F8013BC9B2D37800F8013B938800F86A
:10094C00013B9288120A00F8012B2A789142EBDBCA
:10095C00012A02BFA87800280126069705960723CE
:10096C0000F005F8FFF7CFFF00E01024C7E7109860
:10097C0004904A460020039041460F9802900E982E
:10098C00019000200090204683E688469146304630
:10099C0001F08AB900210DE005EB8102491C937826
:1009AC0000F8013BC9B2938800F8013B9288120A07
:1009BC0000F8012B2A789142EEDB70470446287828
:1009CC0000EB400688469146B0B201F06DB9304656
:1009DC0001F08BB92DE9F04788B000F04CF803E03A
:1009EC0000F028F8C01C86192878FFB28742F7D38C
:1009FC00B0B201F059F95FEA000A16D0002701E005
:100A0C0000F01FF82978FFB28F42F9D3CDF818A067
:100A1C00B6B205960A23129804904A4600F020F8C4
:100A2C000446504601F061F900E01024204608B05D
:100A3C00BDE8F08705EBC700001D7F1C416880787E
:100A4C0055E305EBC7010B1DC21C198801707F1CF7
:100A5C001988090A4170997881709878596841E22F
:100A6C0000200390414611980290109801900020AC
:100A7C00009020460DE60446884691461D46002609
:100A8C000027704710B588B01C788DF81C405B7837
:100A9C008DF81D3007AB0693022305930D9B049331
:100AAC000C9B03930B9B02930A9B019300230093D3
:100ABC000B23FFF7EEFD08B010BDF0B50746002480
:100ACC00F88C03288BB0B8BF01201BDBDFF8E05398
:100ADC000597AF600A940894ADF8244006A8B96A4B
:100AEC0000F062F90890F98C081AB96A0818ADF888
:100AFC0024009DF81E002870387D01F020F910B9F3
:100B0C00A8600220F2E0806860B140889DF81F3038
:100B1C0000909DF81800B98800F00302387DFFF7AB
:100B2C009BFD10B9AC600320E0E0B988387D00F083
:100B3C00C5F9B9886B6800E01B68002B43D09E8810
:100B4C00B14224BFDE888E42F6D39DF8182012F0F5
:100B5C00070F04BF9DF81F200B2A34D0400632D556
:100B6C00787E80BB0598407D002802BF05984088A0
:100B7C00002825D1387D002200F0A6F901208DF83F
:100B8C00110004AB9DF81F008DF810009DF81E009D
:100B9C000390BDF81C000290012001900698C0083B
:100BAC0080F0010000F00100009005988288811D02
:100BBC00007DFFF767FFB988387D012200F084F9CA
:100BCC00AC60052092E0069810F0030F43D1C0F3FF
:100BDC00800008B1842653E09DF81F00172838DAEE
:100BEC000FF20C1656F83010080032D0387D8DF804
:100BFC000000BDF82400ADF802000898019000A890
:100C0C0088470A9068B19DF81F0006EBC000416848
:100C1C00080003D005A888470A9810B10A9801F07B
:100C2C0064F89DF81F00002818BF02281CD0032868
:100C3C0018BF062818D0082818BF0C2814D0112863
:100C4C0018BF132810D0152818BF0B280CD000265D
:100C5C0016E0822614E063B19968080009D005A853
:100C6C008847FF28064602D10020A8603EE00128F4
:100C7C0006D10698C0F38000002814BF8326812675
:100C8C000598407D002802BF0598408800281FD198
:100C9C000698C0F30011D9B99DF81F108DF81010EB
:100CAC00C0089DF81E10039180F00100BDF81C10C7
:100CBC00029100F001000090012105988DF811605F
:100CCC000191811D8288007D04ABFFF7DBFE0124BE
:100CDC000020A86056B1842E04D1002C0CBF062035
:100CEC00072003E0002C14BF092008200BB0F0BD36
:100CFC008512000083170000B9120000A71C000029
:100D0C007B130000491800007B1300002919000018
:100D1C00E3130000A71C00007B130000491800001F
:100D2C0029140000A71C00001B150000A71C0000C4
:100D3C004B150000A71C000095150000A71C000017
:100D4C009F160000A71C00006D170000A71C0000D8
:100D5C000000000000000000000000000000000087
:100D6C000000000000000000000000000000000077
:100D7C000000000000000000000000000000000067
:100D8C000000000000000000000000000000000057
:100D9C000000000000000000000000000000000047
:100DAC00000000000000000038B50D460446082283
:100DBC00002100F086FF2878216860F30101216092
:100DCC0021F00401287840074CBF04200020084380
:100DDC002060297809074CBF40F0080020F008007B
:100DEC00206028782168C0064CBF1020002021F01C
:100DFC00100108432060691CC0F3800028B10878FA
:100E0C004A7800EB0220A080891C0878A0714878F1
:100E1C00E071881C32BD2749096821B10A798242E8
:100E2C00FAD10846704700207047F8B50C461546B5
:100E3C001E46FFF7F0FFA8B14269002101E0491CF2
:100E4C00C9B2037C99420DDA0C234B439F5AA7423B
:100E5C0002BF9F18BF88AF42F1D198180EC80EC6BA
:100E6C000120F2BD0020F2BD80B5FFF7D4FF00B128
:100E7C00806802BD80B5FFF7CEFF00B1C06802BD2F
:100E8C0030B50D4A12688AB113798342FAD1002326
:100E9C0000E05B1C5479DBB2A342F3D2946834F8C3
:100EAC0023508D42F5D104EB830030BD002030BDC2
:100EBC00D0330020203400202434002080B5FFF7EC
:100ECC00DFFF00B1807802BD10B51446FFF7D8FFE4
:100EDC0038B18178002C14BF41F0400101F0BF0102
:100EEC00817010BD03460029104600F08080082B4D
:100EFC0051D0092B51D00A2B55D00B2B5FD0102B76
:100F0C0018BF182B47D0192B47D01A2B4BD01B2BA3
:100F1C0055D0202B3FD0212B3FD0222B43D0232B3D
:100F2C004DD0242B4ED0252B4ED0262B4ED0272BFC
:100F3C004ED0282B2FD0292B2FD02A2B33D02B2B34
:100F4C003DD02C2B3ED02D2B3ED02E2B3ED02F2BFC
:100F5C003ED0302B1FD0312B18BF382B1DD0392B46
:100F6C002DD03A2B34D0412B18BF422B32D0432BEF
:100F7C0018BF442B31D0E02B1CBFE12BE22B1ED031
:100F8C00E82B18BFE92B08D0EA2B18D0F02B1FD078
:100F9C00F12B29D0704709780EE00A8800F8012B54
:100FAC000988090A08E00A6800F8012B0A68120A85
:100FBC0000F8012B0968090C00F8011B704709683F
:100FCC0000F0A3BE052210E006220EE007220CE082
:100FDC0008220AE00A78521C07E00A784B7802EBE8
:100FEC00032292B2921C00E0102200F074BE7047F3
:100FFC0020380F2881BF18380228A838022801D8B9
:10100C00012070470020704738B50C46154600F09B
:10101C006EF80121ADF80010002203E015F8013B39
:10102C0013558A180346581E002BF7D131BD0828DA
:10103C0049D0092849D00A2849D00B2849D0102872
:10104C0018BF18283FD019283FD01A283FD01B288A
:10105C003FD0202837D0212837D0222837D023283A
:10106C0037D0242837D0252837D0262837D0272822
:10107C0037D0282827D0292827D02A2827D02B2832
:10108C0027D02C2827D02D2827D02E2827D02F2822
:10109C0027D0302817D0312818BF382815D0392838
:1010AC0017D03A281DD0E0281CBFE128E22810D028
:1010BC00E82818BFE92808D0EA280AD0F02810D070
:1010CC00F12810D011E00120704702207047032056
:1010DC007047042070470520704706207047072092
:1010EC00704708207047102070470020704780B56B
:1010FC00442818BF432805D10878497800EB012013
:10110C00801C06E0422813BF41280878401CFFF7DA
:10111C008EFF80B202BDF8B50D460446A96816468E
:10112C0009B90120F2BDA879FFF7E1FF0746A968CC
:10113C003A46204600F0CFFD06B137800020F2BDC4
:10114C00F0B585B01F4604460D46164601ABFFF7B9
:10115C006CFE08B901200EE00A9A039820B101A98F
:10116C003846FFF7D8FF06E000923B463246294648
:10117C00204600F016F805B0F0BD7CB50C460021F9
:10118C00ADF804101546FFF76FFE060006D001A857
:10119C0000900023002229462046B047BDF80400E9
:1011AC0076BDF8B50C4615461E46FFF75DFE0746A4
:1011BC00069808B100210180390006D00090334612
:1011CC00012229462046B847F2BDC120F2BD70B5B8
:1011DC0014461D46E279920718D5224600F039F8DC
:1011EC00060014D10B480268100003D02946204693
:1011FC00904748B16968A079FFF779FF02466968A2
:10120C00A06800F068FD02E0872600E088263046E2
:10121C0070BD00001C34002070B515460446E879FA
:10122C00800782B01E4612D5204600F012F878B91D
:10123C002046FFF719FE040007D00020009033462B
:10124C00A98828880222A04776BDC12076BD8820B7
:10125C0076BD38B515460C46E97989060AD5FFF7EF
:10126C0009FE030006D02946204601B0BDE83040F7
:10127C0002221847002032BD38B5054668886C68D4
:10128C0000F04CFC88B1698849080170002108E025
:10129C002278637802EB032200EB4103A41C5A80F2
:1012AC00491C0278C9B29142F2D332BD2DE9F04704
:1012BC0005464FF000086E68C24613E0B07808F19E
:1012CC000108F61C70B916F8010B00F082F8044600
:1012DC00A6194008B4EB40001CBF641CA4B2A24485
:1012EC001FFA8AFA6868698808188642E6D34FEABA
:1012FC00C800041DE4B20AEB040000F010FC5FEA25
:10130C00000A31D06E688AF8008004EB0A054FF0B1
:10131C00000923E00AEBC900071D3078717800EB57
:10132C0001203880B078B870F61CA8B916F8010BFB
:10133C00F87000F04EF8044622463146284600F07C
:10134C00CAFC04EBD470A61940087D60B4EB4000D5
:10135C001CBF641CA4B2651909F101095FFA89F973
:10136C005FFA88F8C145D5D35046BDE8F0872DE922
:10137C00F047074600257968A84609E000F027F8F1
:10138C0000F0E1F91CBF641CA4B2A0441FFA88F859
:10139C0078687A8810188142F0D300F0ACF900F02C
:1013AC00BEFB5FEA000811D000F0ABF90AE000F0D8
:1013BC00B9F900F0CFF900F0ABF91CBF641CA4B272
:1013CC00E719761CF6B2EDB2AE42F0D390E1887814
:1013DC00CE1C31468BE670B50546002468886E68D5
:1013EC0000F09CFBC8B16988012910D1317881705B
:1013FC00012411E0E4B200EB840116F8012B8A7091
:10140C00641C3278737802EB03228A80B61C6968FC
:10141C006A8851188E42EDD3047070BD2DE9F843E3
:10142C0007464FF000087C68C14600E0641D7868F0
:10143C0079880818844218D22078002808F101080D
:10144C00F4D1E5782846FFF7D3FD083458B1284687
:10145C00FFF7EDFD0419C10748BF401CC0B248445A
:10146C001FFA80F9E3E7641CE1E700F00BF900F0E8
:10147C0056FB5FEA000949D07C6889F8008005EBCF
:10148C000907002506E00178427801EB0221718101
:10149C00841C6D1CEDB25FFA88F8454536D209EB19
:1014AC000510061D10220021304600F00AFC2178A0
:1014BC003170601C02784378801C02EB03220029F7
:1014CC007280E0D110F8011B31714278017801EB88
:1014DC000221F18010F8021F427801EB02213181C8
:1014EC00841C3079FFF784FD0028D2D03079224655
:1014FC003946FFF789FDF7603079FFF798FD04193D
:10150C00C10748BF401CC0B2C719C2E7B7E038B525
:10151C004468408885052D0EA80000F0FFFA68B1DC
:10152C000570002107E000F028F814F8013BD37097
:10153C00C9B200F01BF802789142F4DB32BD38B529
:10154C0044684088032190FBF1F5EDB2A80000F04F
:10155C00E5FA50B10570002104E000F00EF800F03F
:10156C0005F8C9B202789142F7DB32BD2378657871
:10157C0003EB05239380A41C704700EB810214F845
:10158C00013B9370491C70472DE9F84306464FF018
:10159C0000087468C14600E0A41C706871880818C3
:1015AC0084421CD214F8010B14F8031B002808F118
:1015BC000108F2D10029EFD114F8055B2846FFF79A
:1015CC0017FD0028E9D02846FFF731FD0419C107A3
:1015DC0048BF401CC0B248441FFA80F9DDE700F058
:1015EC0051F800F09CFA5FEA000948D0746889F859
:1015FC00008005EB0906002506E02078617800EBF9
:10160C0001207881A41C6D1CEDB25FFA88F8454569
:10161C0035D209EB0510071D20783870A21C6178B3
:10162C0079701378547803EB0423941C00287B8086
:10163C00E9D10029E1D114F8010B387161782078D7
:10164C0000EB0120F880A01C0178427801EB02210C
:10165C003981841C3879FFF7CBFC0028D3D038793A
:10166C0022463146FFF7D0FCFE603879FFF7DFFCED
:10167C000419C10748BF401CC0B28619C3E74846CD
:10168C00BDE8F2834FEA0810051DEDB209EB050029
:10169C0070472DE9F047074600257968A84609E010
:1016AC00FFF795FE00F04FF81CBF641CA4B2A044D9
:1016BC001FFA88F878687A8810188142F0D300F005
:1016CC001AF800F02CFA5FEA000811D000F019F8B3
:1016DC000AE000F027F800F03DF800F019F81CBF04
:1016EC00641CA4B2E719761CF6B2EDB2AE42F0D38C
:1016FC004046BDE8F087E800041DE4B208EB0400A6
:10170C007047796888F8005004EB0807002670478A
:10171C0004EBD4704008C9F8047004EB0A01B4EB74
:10172C004000704708EBC60000F1040908784A78BD
:10173C0000EB0220A9F8000001F1030A887889F86F
:10174C0002005146D3E404466D1CA1194008B4EBC9
:10175C0040007047044622465146384600F0BBBA5A
:10176C0010B54468022000F09FFA18B1217801707E
:10177C006178417010BD2DE9F043044687B065696E
:10178C002878C000001D00F0CAF95FEA000808BF05
:10179C00002051D0287888F80000002703E086202C
:1017AC00B0707F1CFFB2287887422FDA08EBC70095
:1017BC0005EB4701061D4888308003AB20684A883A
:1017CC008188007DFFF731FB0028E8D09DF81300DD
:1017DC00C10719D52168C00601F1060909D5087D94
:1017EC00FFF748FB030004D0012203A948469847A1
:1017FC0000E00020B070B0780028D2D1059870605D
:10180C009DF81200F070CCE78F20C9E72068A17A10
:10181C0002914346012101916168C90881F00101DF
:10182C0001F001010091811D8288007DFEF7DFFF30
:10183C00404600F05AFA0120FFF762B82DE9F04F4C
:10184C00044685B0606900900027E07A0228BA4609
:10185C0008D1009800F060F95FEA000908BF002089
:10186C0053D00127D04607E027B18620B070DA4666
:10187C002888B08008F101085FFA88F80098007891
:10188C0080452DD2009800EBC80000F041F801AB68
:10189C00FFF7CBFA5FFA8AFA002809EB8A060AF1FD
:1018AC00010BE1D0A8789DF80A10884214D1206869
:1018BC00039931B1811D007D2B4601AAFFF787FCEE
:1018CC0005E0811D6B68007D01AAFFF7A5FC002FC8
:1018DC0018BF0028CED0C9E7002FCBD08D20C5E78C
:1018EC0097B189F800A099F8000020B989F8020096
:1018FC00012089F800002068A17A02914B4600F083
:10190C00FDF8484600F0F1F9012005B0BDE8F08F74
:10191C00051D206881882A88007D70472DE9F04FCD
:10192C00044687B0606901904FF0000800F0F4F8AD
:10193C000600C14608BF002033D0CA460EE0FFF7B0
:10194C00E8FFFFF71AFCADF80C0000F0CBF84044B0
:10195C001FFA80F80AF101005FFA80FA019800780A
:10196C0082450EDA019800EBCA00FFF7D1FF04ABF9
:10197C00FFF75BFAB0B98620B0704FF001092888E8
:10198C00B08086F800903078002840F0A08008EBFA
:10199C00C90000F0C4F85FEA00081AD1FFF717F885
:1019AC0000209DE09DF81600A978814201D08D2081
:1019BC00E2E79DF817108A0701D48820DCE7890636
:1019CC0001D57E20D8E706990029B8D0FFF78FFB08
:1019DC00B9E708EBC9054FF0000A06E000F082F801
:1019EC0045190AF101005FFA80FA019800788245E6
:1019FC0063DA019800EBCA00071D206881883A88D9
:101A0C00007D04ABFFF711FA002808EBCA0B54D089
:101A1C003888ABF80000CBF80450069860B103AAE4
:101A2C0004A92846FFF777FB2068811D007D3B4603
:101A3C0004AAFFF7CCFB0FE0206803A900912B460A
:101A4C0081883A88007DFFF7ACFB20687B68811D9C
:101A5C00007D04AAFFF7E0FB0028BFD006EB89014C
:101A6C0009F10109887000253888888007E0206812
:101A7C007B68811D007D00AAFFF7CEFB6D1CE8B2D0
:101A8C0050451AD220688188007DEDB208EBC5075D
:101A9C0000AB3A88FFF7C9F978B1DDF808B0BBF1B3
:101AAC00000FE4D079689DF80600FFF720FB024692
:101ABC007968584600F00FF9E0E786F80090307826
:101ACC0010B9B07001203070404600F00EF920685B
:101ADC00A17A0291334600F011F8FEF778FF01204D
:101AEC00FEF7F1BEBDF80C00C00704D5BDF80C0024
:101AFC00401CADF80C00BDF80C00704701210191A1
:101B0C006168C90881F0010101F001010091811D9A
:101B1C008288007DFEF7DABE00788000801C80B2DF
:101B2C0000F0C2B8F0B589B000228D4B03EBC204B3
:101B3C00656885BB05AD00260027B446A5E8C01036
:101B4C0023F8320061600A788DF800208A68538887
:101B5C00ADF802309388ADF80430927902F00F02A0
:101B6C008DF806208A68D2798DF807208A689368E8
:101B7C000293127B8DF80C208A6812690492097802
:101B8C008DF814108DF81C6000A9069105A900F0C1
:101B9C0050FA012003E0521C062AC7DB002009B0D2
:101BAC00F0BD7049086070476F490860704710B508
:101BBC006E4C214600F001FA204610BDF0B5694E7E
:101BCC001446326883B01D46002A1CBF9368002B54
:101BDC001DD006278DF80070ADF80200ADF804108A
:101BEC000023D269100003D0DDE9000190470346C1
:101BFC002246934201D10020FEBD3468A468DDE981
:101C0C0000012B46A047012801D10A20FEBD092066
:101C1C00FEBDFEB5534F14463A6800261D46002AF9
:101C2C001CBF5369002B1BD006238DF80430ADF874
:101C3C000600ADF80810D269100010D0DDE90101E2
:101C4C00904760B10898009022463C68A469DDE991
:101C5C0001012B46A047012802D10A2600E00926E3
:101C6C003046FEBD70B53F4D2D6884B000248DB15B
:101C7C002D692E000ED0ADF8060006260898ADF89A
:101C8C00081000908DF80460DDE90101A8470128D7
:101C9C0008BF0A24204604B070BD334909680A0005
:101CAC0018BF084701207047E0B50821ADF80010B7
:101CBC000190042100F023F808B100200EBD029819
:101CCC000EBD10B5044610460A4601462046FEF7E6
:101CDC00B1F9204610BD03E011F8013B00F8013BBF
:101CEC0013465A1E002BF7D1704700B583B008215C
:101CFC00ADF800100190052100F001F807BDADF81A
:101D0C00021000A81A490968084701700A0A4270B3
:101D1C000A0C090E8270C170001D70470021104A18
:101D2C0002EBC1035B682BB11B78984202D132F8ED
:101D3C0031007047491C0629F2DB00207047002255
:101D4C00074901EBC201496821B10B78984201D1D6
:101D5C0008467047521C062AF2DB00207047000030
:101D6C00A4320020283400202C340020BC06002093
:101D7C002C070020F0B58BB007460C4615461E46C6
:101D8C00282100A8FEF78AF9387A8DF8000003287C
:101D9C0006D1082239460DF1020000F0BFF903E02C
:101DAC0010B13888ADF80200787A8DF80A0078897D
:101DBC00ADF80C001298810744BF01218DF8191061
:101DCC00C10644BF01218DF81A10010744BF01213F
:101DDC008DF81B10810644BF01218DF81C104106A3
:101DEC0044BF01218DF81D10000644BF01208DF861
:101DFC001E0020788DF81400ADF81650119800785C
:101E0C008DF81800ADF8206013988DF81F0010980D
:101E1C0009902078FFF782FF00A900F010F90BB0B1
:101E2C00F0BD0000E0B500F00EF8022100F02CF837
:101E3C0008B100200EBD02980EBD00B583B000F0B5
:101E4C0002F803211DE00821ADF800100190704745
:101E5C001FB5ADF80610ADF804000824DFF8F41136
:101E6C008DF808200393ADF80040ADF8024000A8AF
:101E7C000968884704B010BD00B583B0FFF7E3FFD5
:101E8C00052100F001F807BDADF8021000A8DFF83D
:101E9C00C4110968084730B585B014460822029170
:101EAC00ADF800201922DFF8AC1109680190ADF8EB
:101EBC0002201D4600A8884714B1BDF80C102180E3
:101ECC0015B1BDF80E102980089A0499116005B05F
:101EDC0030BD2DE9FC4180460E4617461846FFF7EB
:101EEC00A1FF102504001ED02670002060706760D2
:101EFC002346002230214046FFF7AAFF88B9019003
:101F0C0001A800900023089900F07AF808B96578C8
:101F1C0007E0022808BF302503D001280CBF31256B
:101F2C00012500F039F82846BDE8F6811178481EE5
:101F3C008041C00F70471078042801D101207047F0
:101F4C00002070471078082801D10120704700202C
:101F5C0070471078102801D101207047002070477D
:101F6C001078142801D10120704700207047107898
:101F7C00202801D1012070470020704710782228BA
:101F8C0001D1012070470020704780B5DFF8C820D0
:101F9C0000F05BF8002107E020464EE780B5DFF843
:101FAC00BC2000F052F80421FFF793FF02BD019012
:101FBC00002301A8009000227047F0B5054683B0BD
:101FCC000E460820FFF72EFF1027040016D008201D
:101FDC0000F01AF880B9FFF7EAFFDFF8841000F080
:101FEC0010F808B9677807E0022808BF302703D03B
:101FFC0001280CBF31270127FFF7CEFF3846FEBD65
:10200C0000224FF0FF3046E72070666000206070C1
:10201C0023460022302128461AE780B5114A00F0E9
:10202C0014F81021C0E780B50F4A00F00EF8142107
:10203C00BAE780B50D4A00F008F82021B4E780B566
:10204C000B4A00F002F82221AEE7009208230A4660
:10205C00704700002C070020391F0000431F0000B0
:10206C00511F00005F1F00006D1F00007B1F000050
:10207C00891F000038B5044601252078482847D030
:10208C0060283FD061283DD0622818BF63283FD01C
:10209C0064282FD0652833D0662831D068282FD0FB
:1020AC006A2818BF6B2833D06C2818BF6D282FD026
:1020BC006E2825D06F2823D0702821D071281FD0EE
:1020CC0072281CBF7328742822D075281AD0802837
:1020DC000ED0812818BF84281AD0862818BF9128C2
:1020EC0016D0922810D0952818BF962810D012E040
:1020FC00A0680AE0606908B1FFF7BEFEE06904E081
:10210C00E06802E0606900E0E06A08B1FFF7B4FE45
:10211C00FFF742FF00E00025284632BD62B38B0773
:10212C0008D0521E11F8013B00F8013B00F024804E
:10213C008B07F6D1830740F0208000BF103A07D3FD
:10214C0030B4B1E83810103AA0E83810F9D230BCED
:10215C00530724BFB1E80810A0E8081044BF51F899
:10216C00043B40F8043BD20724BF31F8022B20F883
:10217C00022B44BF0B7803707047083A07D3B1E8C1
:10218C000810083A40F8043B40F804CBF7D2530748
:10219C00E4E7000062F30F2262F31F4200B500BFB8
:1021AC00130096469446103928BFA0E80C50FAD874
:1021BC005FEA417C28BF0CC048BF40F8042BC9071C
:1021CC0028BF20F8022B48BF00F8012B00BD0000EF
:1021DC00DFF800F0C1C20110DFF800F041AC0110D3
:1021EC00DFF800F06DA90110E0B50821ADF8001082
:1021FC000190042100F00FF808B100200EBD0298E8
:10220C000EBD00B583B00821ADF80010019005217A
:10221C0000F001F807BDADF8021000A8DFF8DC1DD6
:10222C00096808472DE9704301F022FA4FF05E511E
:10223C0001F02EFA064601F097FA04460D460022EC
:10224C00DFF8443D01F0C9FCDFF84C2DDFF84C3DC4
:10225C0001F0DCFE804689462046294622462B4664
:10226C0001F0D4FE4FF06632DFF8343D01F0CEFEC3
:10227C0002460B464046494601F09AFF04460D467D
:10228C00DFF8200D314601F003FA01F06DFA224619
:10229C002B4602F04DF8DFF8102DDFF8A43D02F0CC
:1022AC0047F802F0B9F802463046002102F0FCF87B
:1022BC000CBF00201046BDE8708310B584B001211E
:1022CC00FFF76FFCDFF87C4D0020A060208002F04F
:1022DC005CF902F09DF902F0B9F902F01DFA02F076
:1022EC00E5FA02F07CFB00F02FF80FF6051002F077
:1022FC0093FC02F069FD01F035F900F0E6FB0120DA
:10230C0000F0EBFBBDF80400A0840298A06502F07D
:10231C0067FEDFF8340D02F0CDFE3C2002F0D5FF55
:10232C00012002F081FFE08C40F01000E084E08C92
:10233C0040F04000E084E08C40F48060E08400F0E9
:10234C00F9F800F070F91FBD1CB500200190009049
:10235C000023DFF8F84C0FF6FD01642204F12C0089
:10236C0002F0DEFF206000F059F80FF6493104F15D
:10237C00500002F0D5FF606000F050F80FF64531C8
:10238C0004F1740002F0CCFFA06000F047F80FF6E7
:10239C00ED3104F1980002F0C3FFE06000F03EF86C
:1023AC000FF6E93104F1BC0002F0BAFF206100F035
:1023BC0035F80FF6754104F1E00002F0B1FF6061F1
:1023CC0000F02CF80FF66D4104F5827002F0A8FFB6
:1023DC00A06100F023F8DFF8781C04F5947002F08B
:1023EC009FFFE06100F01AF8DFF8681C04F5A67096
:1023FC0002F096FF206200F011F8DFF85C1C04F587
:10240C00B87002F08DFF606200F008F8DFF84C1C29
:10241C0004F5CA7002F084FFA06213BD6422002090
:10242C0001900090034670472DE9F843DFF8304CDB
:10243C00DFF8109C04F148050920287220704FF435
:10244C00827640F20130A08066802C6104F150014C
:10245C00A07900F0F000A07104F170080420E07184
:10246C0004F1280704F19800A0600120207304F106
:10247C009000206100F05AF80A2028762075E68238
:10248C0040F20530208304F16001A07E00F0F000E2
:10249C00A0760320E07604F1A000E061012084F82E
:1024AC00200004F19200606204F11400286200F034
:1024BC003DF80B2088F8000038707E804FF4837054
:1024CC00B8804146B87900F0F000B8710320F8717B
:1024DC0004F1A800B8600120387304F1940038614D
:1024EC00C8F8087000F022F80C2088F81000387535
:1024FC00FE8240F27720388304F18001B87E00F030
:10250C00F000B8760420F87604F1B000F8610120F0
:10251C00287004F19600686004F13C00C8F81800BB
:10252C00B9F82400BDE8F443FFF7FCBAB9F824006D
:10253C00FFF7F8BA10B5B2B0FFF776FF1FA8482125
:10254C00FDF7ACFD01208DF8BA008DF8BB001FA97A
:10255C00DFF8F04AA08CFFF766FD0020ADF8000014
:10256C0000A9A08CFFF759FD04F16001092002F0CD
:10257C0009FF04F160010A2002F004FF04F160017C
:10258C000B2002F0FFFE04F160010C2002F0FAFEB9
:10259C004FF41E710FF231620846FEF721F80FF26C
:1025AC000960FFF701FB0FF6BC220F210920FEF793
:1025BC002FF80FF6643210210A20FEF729F80FF6D7
:1025CC0018420D210B20FEF723F80FF6A8420E211E
:1025DC000C20FEF71DF803A87021FDF75FFD01A884
:1025EC000021002206C001208DF86C008DF84800F7
:1025FC008DF86D1012A8DFF8741D416008220121BE
:10260C0081720DF1530001A9FFF788FD01208DF8AF
:10261C00280003A94FF6FF70ADF82A00A08CFFF735
:10262C00BDFC32B010BD2DE9F04F9DB04FF0000A4B
:10263C00DFF83CBDDFF83C4DDFF83C7DDFF8045A99
:10264C00D8E00021208D00F0FBFEE88C4FF6FF3126
:10265C000840E884E88C000513D500A800F072FB54
:10266C0010B1BDF80000288700F012FF288F688792
:10267C00618D208D00F0E4FEE88C4FF2FF71084074
:10268C00E884E88CC00451D5DFF8980D00884FF031
:10269C007E51FFF7C7FD8046DFF8880DDFF8941DEB
:1026AC004088FFF7BFFD06464046DFF88C1D02F060
:1026BC0035FF98BFDFF8848D304602F02FFF98BFAE
:1026CC00DFF8786D404601F04FF8002200F002FA76
:1026DC0002F036FFA887304601F046F800F0F9F911
:1026EC0002F02EFFB88500F09CFC060015D000F01F
:1026FC00E4F905F13C00B06040F2772200F002FAF8
:10270C000120B080334607F12C00B06040F27722F4
:10271C0000F0F8F93046FFF774FDF988B88800F03E
:10272C00E7FEE88C4EF6FF710840E884E88C8004E4
:10273C0060D502F09EF9002838D0002002F0B9F9DB
:10274C008146012002F0B5F90646022002F0B1F9EB
:10275C0080464846DFF8E01C02F0E0FE98BFDFF848
:10276C00DC9C304602F0DAFE98BFDFF8D06C4046B5
:10277C0002F0D4FE98BFDFF8C48C484600F0F4FF9A
:10278C00002200F0A7F902F0DBFEE887304600F0EB
:10279C00EBFF00F09EF902F0D3FEF885404600F006
:1027AC00E3FF00F096F902F0CBFE388600F039FC1E
:1027BC00060016D000F081F905F13E0000F09FF9FB
:1027CC000120B080334607F12E0000F098F902206A
:1027DC00B080334607F1300000F091F93046FFF736
:1027EC0010FD798B388B00F09FFEE88C4DF6FF7155
:1027FC000840E88400F069F90A20ADF802004FF0B7
:10280C00FF30DFF8F8170968019000A88847002806
:10281C00F0D100F05AF9092000F05FF9BDF806106C
:10282C00029E002851D1BDF80400302804BFA88CAA
:10283C0081423ED1002E48D03178922902D0942981
:10284C0004D032E0301D00F068F92EE0B1783A780F
:10285C008A422AD03970B17809291CBF0729062968
:10286C0008D00321002002F0DCFA5146012002F0CE
:10287C00D8FA1AE0FFF79BF90221002002F0D1FAF6
:10288C000221012002F0CDFAB07806280DD100A863
:10289C007021FDF703FC01208DF8060000A941F220
:1028AC0088300290A88CFFF779FB3046FFF7E2FBEB
:1028BC0000E056B100F009F90320DFF84017096871
:1028CC00ADF80200019600A88847E88C400712D5A5
:1028DC00687B1F2808D101208DF801008DF800A01D
:1028EC0000A9A88CFFF751FB85F80DA04FF6FB71E2
:1028FC00E88C0840E884E88CC0070AD5288D08B11C
:10290C00401E288500F07EF9E88C4FF6FE710840D9
:10291C00E884E88CC00623D500A800F0A1F910B11A
:10292C00BDF800006885B5F92A00B5F92C10401ADD
:10293C00B5F9141048BF4042002948BF49428842AB
:10294C0005DB00F0F8FA688D698AA88500E00021A3
:10295C00288A00F0BCFAE88C4FF6EF710840E88446
:10296C00E88C800613D500A800F07AF910B1BDF8F8
:10297C000000688500F0DFFA688D698AA885288ACE
:10298C0000F0A5FAE88C4FF6DF710840E884E88C7B
:10299C00400621D500A800F085F910B1BDF8000063
:1029AC00E885E88D298E401AB4F9041048BF4042DE
:1029BC00002948BF4942884205DB00F021FBE88D25
:1029CC002886618800E00021208800F0EFFAE88C6E
:1029DC004FF6BF710840E884E88C000613D500A8B8
:1029EC0000F060F910B1BDF80000E88500F008FBBC
:1029FC00E88D28866188208800F0D8FAE88C4FF69C
:102A0C007F710840E884E88CC00521D500A800F04F
:102A1C0078F900F069F8B5F93400B5F93610401AB8
:102A2C00B4F9181048BF4042002948BF49428842B7
:102A3C0005DB00F0B8FCA88EE886E18A00E00021F6
:102A4C00A08A00F06BFCE88C4FF6FF610840E8842C
:102A5C00E88C800511D500A800F053F900F044F87B
:102A6C0000F0A1FCA88EE886E18AA08A00F056FC52
:102A7C00E88C4FF6FF510840E884E88C40057FF560
:102A8C00E9AD00A800F05EF910B1BDF80000288790
:102A9C00288F698F814234BF401A081AB4F92C1060
:102AAC00002948BF494280B28842FFF6CAAD00F007
:102ABC00EFFC288F6887618DC4E501203070A6F883
:102ACC0004A02120B071334670470820ADF80000F7
:102ADC00704752465B4601F099BADFF82015096839
:102AEC00ADF8020000A8084740B1BDF80000A88668
:102AFC000A21BDF9000090FBF1F068867047B060C8
:102B0C004FF41E72287B0290411C01202973019006
:102B1C00009029460C20FDF75DBF30B504468DB002
:102B2C00E089ADF802000DF10205208A6880A07AD8
:102B3C006873A089E8812078287302281CBF0128BB
:102B4C000F2802D16088A88007E0032805D108224D
:102B5C00A11C0DF10600FFF7E1FA608A2882207DA6
:102B6C00A874607DE874E07D2875207E6875607EB1
:102B7C00A875A07DE875E069079007A894F8201067
:102B8C000171618C018204F124014A7882740A7803
:102B9C0002728A7842814968C16000A8FDF78DFFF6
:102BAC000DB030BD0000000010B50446E07A0628D8
:102BBC0004BF204600F0FFF8606918B1FFF721FB55
:102BCC0000206061012010BD80B5017901F0030186
:102BDC00012902BF0168097D0C2901D0012002BD29
:102BEC00C07A012808BF01F029FF002002BD0000B7
:102BFC00DFF850144873C88C40F00400C884886D0A
:102C0C00FFF7EABA10B5DFF8444404F12C0002F0E7
:102C1C00ADFB18B104F12C0002F0AFFBDFF824047B
:102C2C00008D58B1DFF8FC1941432068FFF7D0FA4A
:102C3C0004F12C0002F098FB032100E00021BDE818
:102C4C001040012002F0EDB88088DFF8F8130885F9
:102C5C00D8E77047DFF8EC03C18C41F001012DE19E
:102C6C003EB5044601F005FD00F042F800F036F8E0
:102C7C00050015D0BDF80010BDF8020002AB01AA8A
:102C8C0001F029FD019800F06FFD4FF03332DFF8B1
:102C9C00983901F04DFB00F026F802F051FC208031
:102CAC0028463EBD3EB5044601F0E3FC00F020F89A
:102CBC0000F014F805000FD0BDF80010BDF80200AC
:102CCC0001AB02AA01F007FD019800F04DFD00F0E8
:102CDC000AF802F035FC208028463EBD00A90DF113
:102CEC00020001F0D6BC0022DFF8403901F08EB9A9
:102CFC00DFF83C19096843F69820B0FBF1F0FFF7B8
:102D0C006FBA30B5044685B0012001F017FDDFF82D
:102D1C002019DFF8200900F049F802A801F01BFD8A
:102D2C000546002001F00AFD4DB100AA01A902A838
:102D3C0001F038FD00980A21B0FBF1F02080284604
:102D4C0005B030BD38B50446012001F0B5FDDFF803
:102D5C00E018DFF8E40800F029F800A801F0C2FD43
:102D6C000546002001F0A8FDF5B1BDF8000001F00A
:102D7C00E4FD00F0F9FC012202F008FC0022DFF86F
:102D8C00BC3801F043F90022DFF8B43801F0D0FA76
:102D9C0001F042FBDFF8AC1802F0C0FB94BF4FF619
:102DAC00FE7002F097FD2080284632BD0968B0FB0A
:102DBC00F1F0FFF715BA2DE9F04F814687B0D9F83D
:102DCC0014A09AF800008000801C80B2FFF70CFA67
:102DDC0000255FEA000B08BF002067D0A84609E079
:102DEC008620EDB20BEB85016D1C887060888880A5
:102DFC0008F101085FFA88F89AF80000804538D28B
:102E0C000AEB0810041DD9F8000081886288007D47
:102E1C0003ABFEF70AF80028E2D020780028DFD1B7
:102E2C0020799DF81210884221D10026854800EBAC
:102E3C008600076C0598B968884205D0761CF6B2F6
:102E4C00062EF3DB8C20CCE7002FFBD0E0883880FB
:102E5C0021897980E2681288BA803A699047009794
:102E6C000623002231460220FEF7D3FEC0E78D2058
:102E7C00B7E7EDB235B900208BF8020001208BF8D2
:102E8C00000001E08BF80050D9F8000099F80A1006
:102E9C0002915B46012101910091811D8288007D88
:102EAC00FDF735FD5846FFF7ACF9012007B0BDE83A
:102EBC00F08F00006348C18C41F01001C184806D1B
:102ECC00FFF78AB95F48C18C41F02001F6E7F8B5ED
:102EDC0004465E4E0D4606F1500002F047FA18B15A
:102EEC0006F1500002F049FA45B106F1740002F007
:102EFC003DFA18B106F1740002F03FFA00F042FA04
:102F0C0018D0AC42DFF81C7708D0706807FB04F1CE
:102F1C00FFF75EF906F1500002F026FA55B1B068E1
:102F2C0007FB05F1FFF754F906F17400BDE8F24018
:102F3C0002F01ABAF1BD10B584B000F072F8414C31
:102F4C00E065C8B1012101700021E06D818029216B
:102F5C00817104F12A00E36D986040F20242207BFB
:102F6C000290411C01202173019000902146092000
:102F7C00FDF730FDE06DB1E21FBD0000DFF8C806C3
:102F8C00C18C41F0400199E700000840DFF8B80619
:102F9C00C18C41F0800191E79A9999999999F13FE7
:102FAC0066660E4000000244D7A3703D2DE9F8453B
:102FBC00264E044606F1980700F0E8F910B13846A1
:102FCC0002F0DBF906F1BC0835B1404602F0CEF94F
:102FDC0010B1404602F0D1F900F0D4F90CD0AC425B
:102FEC00DFF840A605D0F06800F0C8F9384602F0CA
:102FFC00BBF90DB13069CDE1BDE8F1852C0700209E
:10300C0010B584B000F00DF8040009D000F05AFAA5
:10301C0001F12E0000F04DFA40F2054209205AE26F
:10302C001FBD0C20FFF7E0B8DFF81C06C18C41F483
:10303C00807143E7DFF81006C18C41F400713DE765
:10304C000AD7E33F7003002004AF0000F82C0020E7
:10305C002734000035340000F33400002B35000019
:10306C0008020020000000000300200108B100004D
:10307C00000000000000200109B100000000000069
:10308C00040042010CB100000000000005004201E8
:10309C0020B10000000000000600420134B1000025
:1030AC00000000000700200148B1000000000000F3
:1030BC001000420310070020000000001100200344
:1030CC00DD330020030000000000210398030020E2
:1030DC0002040000000029019A03002002040000F1
:1030EC00010029014AB1000002040000020029017C
:1030FC004CB1000005040000000021019E030020DB
:10310C0005040000010021014EB10000050400007F
:10311C000200210150B1000000000000030020015A
:10312C0008B10000000000000000200109B10000FF
:10313C0000000000040042010CB10000000000007F
:10314C000500420120B10000000000000600420111
:10315C0034B10000000000000700200148B100005D
:10316C0000000000100042031007002000000000C7
:10317C0011002003DD3300200300000000002103B8
:10318C00980300200304000000002901A203002082
:10319C00030400000100290152B1000003040000E7
:1031AC000200290154B100000304000010002901A1
:1031BC00A4030020030400001100290156B10000F3
:1031CC00030400001200290158B1000003040000A0
:1031DC00140028015AB10000000000000300200177
:1031EC0008B10000000000000000200109B100003F
:1031FC0000000000040042010CB1000000000000BF
:10320C000500420120B10000000000000600420150
:10321C0034B10000000000000700200148B100009C
:10322C000000000010004203100700200000000006
:10323C0011002003DD3300200300000000002103F7
:10324C00980300200004000000002101A8030020C6
:10325C0000040000010021015CB10000000400002A
:10326C00020021015EB1000000000000000000001F
:10327C0000000000000000000300200108B1000065
:10328C00000000000000200109B100000000000057
:10329C00040042010CB100000000000005004201D6
:1032AC0020B10000000000000600420134B1000013
:1032BC00000000000700200148B1000000000000E1
:1032CC001000420310070020000000001100200332
:1032DC00DD330020030000000000210398030020D0
:1032EC007702000000002101AC03002077020000EF
:1032FC00010021019C320020780200000000210115
:10330C00AE03002078020000010021019E32002053
:10331C007802000002002101A03200202DE9F845BE
:10332C00CA4E044606F1E00700F030F810B13846FA
:10333C0002F023F806F5827835B1404602F016F813
:10334C0010B1404602F019F800F01CF80CD0AC4259
:10335C00DFF8D0A205D0706900F010F8384602F002
:10336C0003F80DB1B06915E0BDE8F18500F8FF0771
:10337C000000244000320020703200200AFB04F1CF
:10338C00FEF726BF4FF6FF70854270470D46384654
:10339C0001F0ECBF0AFB05F1FEF71AFF4046BDE851
:1033AC00F24501F0E1BF70B584B0FFF73AFE0400BE
:1033BC002AD0012020700020A0802920A07140F28A
:1033CC000346A14D05F13200A060234600F01DF824
:1033DC00324629460A20FDF7FDFA012020702346CB
:1033EC001020A08032462920A07105F13400A06085
:1033FC0000F00BF829460A20FDF7ECFA204604B041
:10340C00BDE87040FEF7FDBE7FBD287B0290411CDD
:10341C00012029730190009070478B48C18C41F4B6
:10342C0080614BE5EE000E408748C18C41F4006191
:10343C0044E500000000204001C8CC4500C8CC4544
:10344C002DE9F845814E044606F59477FFF79EFF6B
:10345C0010B1384601F091FF06F5A67835B140461B
:10346C0001F084FF10B1404601F087FFFFF78AFF9F
:10347C000CD0AC42DFF8ACA105D0F069FFF77EFFB1
:10348C00384601F071FF0DB1306A83E7BDE8F18574
:10349C0010B584B0FFF7C5FD040009D000F012F898
:1034AC0001F1380000F005F84FF480620B2012E0B7
:1034BC001FBDA060087B0290421C01200A73019082
:1034CC0000907047012020700020A0802920A0715E
:1034DC0023465D497047FDF77DFA204604B0BDE8F0
:1034EC001040FEF78EBE5848C18C41F48051E5E483
:1034FC0070B50C0012D0554D05F5B876304601F07C
:10350C0035FF10B1304601F038FF4FF6FF708442A2
:10351C0004D0444800FB04F1686A1CE070BD4A48C2
:10352C00C18C41F40051C9E470B50C0012D0474D68
:10353C0005F5CA76304601F019FF10B1304601F09E
:10354C001CFF4FF6FF70844204D0364800FB04F198
:10355C00A86A00E070BDFEF73BFE3046BDE8704047
:10356C0001F002BF002070B5374CA08504F12A0091
:10357C00A06104F12E0104F12C00E06182B034480A
:10358C002062002504F110002064002020863148C0
:10359C00816004F13001C1602F4901616064002138
:1035AC00E18604F13401C1612C49416200F114013E
:1035BC00A1640021618704F13801016304F13A012F
:1035CC004163274981632830E06404F13C012548BC
:1035DC00C16025494161011D216504F13E01016273
:1035EC00224981621830606504EB85063C20336CFF
:1035FC0018805880062200209880A9B20220FEF77D
:10360C00DDFA306C009006230022A9B20220FEF7EE
:10361C0029FB326C51881088126990476D1C062D5D
:10362C00E2DB73BDA08601003333FBBF00005940C1
:10363C0000B400008038010068B901000088C34064
:10364C000000F03F01FE7F4770030020F82C0020A3
:10365C00DB2E000000320020B92F000029330000BF
:10366C004D34000070320020FD3400003535000070
:10367C00002800BF0AD0B0FA80F18840D1F19D013A
:10368C00C905020672F1004241EB102070470000A0
:10369C00FF2212EAD05C1DBF12EAD153944593422B
:1036AC002BE09C44D30780EA01021A4043EA002035
:1036BC0043EA0121A1FB0030410038BF40007CF1FE
:1036CC007F010BDBFE294ADA5B0842EAC15153EA5F
:1036DC00006373F1004C51EB10207047D1F1080CD2
:1036EC00DCF120012FDB5B0810FA01F10B4373F1C5
:1036FC00004120FA0CF05041704794451CBF02EA7F
:10370C00D153934280EA010202F000421DD04000E6
:10371C0019D0490017D05BB9634514D00902B1FA2E
:10372C0081F39940BCEB030CC00140F00040C1E7B1
:10373C000002B0FA80FC10FA0CF0B3EB0C0CC901CF
:10374C0041F00041B6E71000704740000AD0490034
:10375C0008D010F1807F94BF11F1807F02E042F01D
:10376C00FF407047D04370475FF0FF0C1CEAD0510C
:10377C0014BF614506E0C110400721F0E04101F1A2
:10378C006051704779B900F0004100020AD0B0FADC
:10379C0080FC00FA0CF001F16051A1EB0C5101EB33
:1037AC00D0214005704741020CBF40F4E0016FF09E
:1037BC000001002070470000000000002DE9FF4DC3
:1037CC0086B0DDE90801CDE904010798C0F30A5081
:1037DC0040F2FF71884208D107980027000305BF0B
:1037EC00069800280224012412E0012807DA06A812
:1037FC0002F082F8012802DB0027002408E0079A77
:10380C0040F2FE3161F31E520792471A4FF0FF341B
:10381C00002104A802F091F80546129810B11299F3
:10382C000020088035B9DDE908230020002102F0D2
:10383C00C3F811D0002C11D53FB2012F13D1DDE903
:10384C0006230020CA4902F0B7F805D0012D0AD191
:10385C00C84902F0B1F82ED1C749BBE1022C04D102
:10386C00DDE90601B6E1012D59DB022D08BFDDE9CA
:10387C00080100F0AF81012C1BD107980028099892
:10388C0002D4002848D532E0002809D4002D43D1B9
:10389C004FF0FF3104A802F050F800283CD538E076
:1038AC002DBB4FF0FF3104A802F047F800281ED5BD
:1038BC0019E0012D09D1099800283FB202D4012F3B
:1038CC002ADA14E0012F12DA26E00998002811D424
:1038DC006DB94FF0FF3104A802F02FF8002844BF57
:1038EC000798002803D500204FF0004172E100201A
:1038FC0000216FE102F070F82221016065B94FF0F0
:10390C00FF3104A802F019F8002844BF07980028DA
:10391C0002D5002099495DE1002099495AE10798A8
:10392C00002848BF002D08D502F056F8212101606F
:10393C004FF0FF306FF000414CE1DDE90601002251
:10394C00002302F04FF838BFADF804200AD381F001
:10395C000041CDE906014FF0FF3104A801F0EDFF65
:10396C00ADF80400012F13D1DDE90601854A864B21
:10397C0002F050F80CD2DDE90623002420464FF06B
:10398C00804100F043FBCDE9060100267A4D1BE097
:10399C00DDE9062300207D49754D00F037FB002240
:1039AC002B4600F0C5FC01F0CBFDA0F12006304603
:1039BC0002F048F80022764B00F028FB00222B4640
:1039CC0000F0B6FC04460D460FF2202000EB46102A
:1039DC0000902246DDE906012B4600F0E9FB824609
:1039EC008B46DDE9060122462B4600F0A1FC02467F
:1039FC000B465046594602F03DF8CDE90401DDE98D
:103A0C00042300F003FBCDE906AB0646884601F023
:103A1C00E6FE3246434600F0F9FADDE9062300F0F3
:103A2C00C7FB064688460020534922462B4600F029
:103A3C00BFFB00224FF0804300F0E8FA32464346C9
:103A4C0000F076FCDDE9042300F0E0FA02460B46B8
:103A5C00DDE9060100F06CFC04460D464D4A4E4B68
:103A6C0002F008F8CDE90401384601F0EBFF009AAA
:103A7C0007468B46D2E900013A465B4600F058FCFB
:103A8C00DDE9042300F054FCCDE90401DDE9082351
:103A9C0000F0BCFA0022414BCDE9020101F0BAFF63
:103AAC00C0F0808001223E4B01F09CFF40F27E80F2
:103ABC000022002301F0AEFFDDE9022339BF002014
:103ACC002C4900202A4900F033FC01F039FD064650
:103ADC00DDE9080122462B4600F098FACDE90201F7
:103AEC00009A2C4C2C4DD2E902019046D8E90423C3
:103AFC0000F01EFCDDE9082300F088FA22462B4674
:103B0C0000F084FADDE9022300F012FCCDE9020199
:103B1C00DDF800803A46D8E900015B4600F008FC6D
:103B2C00DDE9082300F072FA07468B46304601F0B7
:103B3C0089FF02460B463846594600F039FB2246AF
:103B4C002B4600F063FADDE9022300F0F1FBCDE92E
:103B5C000201129808B10680002600960022064B3E
:103B6C0002A802F0B3F8E8B101281FD02AE000BF88
:103B7C000000E03F0000E0BF0000F03F0000F0FF5D
:103B8C000000F07FCD3B7F669EA0E63F00005040DA
:103B9C000000903FEF39FAFE422EE63F0000E0C0F5
:103BAC000000E0400020CDE9020007E000200149C0
:103BBC0002E000BF0000F07FCDE9020101F00CFF34
:103BCC0022210160BDF904000028DDE9020118BFC3
:103BDC0081F000410AB0BDE8F08D10B582B0002430
:103BEC000094FFF7EBFD1CBD00000000000000007E
:103BFC000000F0BF0000000000000080000000008A
:103C0C00000000800000000000000000000000C068
:103C1C005294EEBF00000048204E51BE000000F848
:103C2C006467BCBC00000000000000000000002025
:103C3C008133EDBF00000080B3DB14BE00000050E8
:103C4C006706A3BC0000000000000000000000D0CC
:103C5C00E9DCEBBF00000008C39259BE00000080F5
:103C6C00B0D3B8BC000000000000000000000070E1
:103C7C00F98FEABF000000C0A51028BE000000E8C4
:103C8C00BFC0B0BC000000000000000000000070CD
:103C9C00284CE9BF00000060134B42BE000000C07E
:103CAC003D20B8BC000000000000000000000050E7
:103CBC00FA10E8BF000000C05FF62BBE00000090B9
:103CCC005C71A7BC00000000000000000000002098
:103CDC00FCDDE6BF000000C0F8F154BE0000001887
:103CEC00E9F6B9BC0000000000000000000000D0A4
:103CFC00C3B2E5BF00000070E43254BE00000050B7
:103D0C00DB06B4BC00000000000000000000001046
:103D1C00EF8EE4BF00000020F36252BE000000C032
:103D2C002A879ABC0000000000000000000000B0D0
:103D3C002272E3BF000000F0E8E056BE000000284D
:103D4C00352DBDBC0000000000000000000000008C
:103D5C000A5CE2BF000000B0FA8E41BE00000040D9
:103D6C00AE6FBDBC000000000000000000000000B1
:103D7C00564CE1BF000000F015CD5FBE0000000006
:103D8C00141C90BC0000000000000000000000406B
:103D9C00BD42E0BF00000030F93457BE000000E027
:103DAC006C1E93BC0000000000000000000000E04E
:103DBC00F57DDEBF000000B08A535EBE00000080BF
:103DCC00DA77AABC0000000000000000000000C070
:103DDC009D81DCBF00000000FFA226BE0000006039
:103DEC0057E2B0BC000000000000000000000060C2
:103DFC00F98FDABF000000580A8151BE000000F0B4
:103E0C005F60B8BC00000000000000000000000073
:103E1C0098A8D8BF000000607A7F45BE000000D093
:103E2C005433A3BC00000000000000000000006040
:103E3C000FCBD6BF000000D091CB40BE000000409D
:103E4C006D1BA0BC0000000000000000000000A0E2
:103E5C00FBF6D4BF00000098C5CE52BE0000000097
:103E6C003A397EBC0000000000000000000000E0B9
:103E7C00FE2BD3BF0000004073872BBE0000000058
:103E8C00926879BC000000000000000000000040B7
:103E9C00C069D1BF00000058F16353BE0000008020
:103EAC00438D7CBC0000000000000000000000807E
:103EBC00D85FCFBF000000181F8354BE000000B0B5
:103ECC003F42A2BC00000000000000000000008087
:103EDC0067FCCBBF00000060FAFF53BE000000502F
:103EEC00E00DB8BC00000000000000000000000065
:103EFC0098A8C8BF000000607A7F35BE000000C0E3
:103F0C00543393BC000000000000000000000000CF
:103F1C00DC63C5BF00000058D6FF54BE0000000093
:103F2C00396490BC0000000000000000000000C0DC
:103F3C00AD2DC2BF00000080A45915BE000000E0EA
:103F4C00484BABBC000000000000000000000080EB
:103F5C001A0BBEBF00000050BF3C5ABE000000A0B0
:103F6C00B364B6BC0000000000000000000000803C
:103F7C0004D6B7BF00000040BBCF36BE00000080A7
:103F8C0076CEA8BC000000000000000000000080FD
:103F9C0032BBB1BF000000402A0043BE0000002825
:103FAC00C60CBDBC000000000000000000000000BA
:103FBC009473A7BF000000182B3B59BE000000C033
:103FCC00E55DA5BC00000000000000000000000042
:103FDC00EE4397BF000000A0E6C340BE00000020E7
:103FEC00958DB5BC00000000000000000000000032
:103FFC0000000080000000000000008000000000B5
:10400C00000000800000000000000000B0B581EA54
:10401C00030C0CF0004C40F2FF7515EA11541DBF57
:10402C0015EA1357AC42AF4239E0E41923EA455381
:10403C0043F48013C90241F0004141EA505EC702CB
:10404C001100A7FB020200284FF00000EEFB01203C
:10405C004FF00001E3FB072118BF42F001024018AA
:10406C0000214941E3FB0E01A4F580640F0302D249
:10407C0052004041494154F101046CDD470872F192
:10408C00004250F1000051EB0451A1F580115CBFCE
:10409C0041EA0C01B0BD4CEA05510020B0BD05EA67
:1040AC001357AC4214BFAF4241E050EA410E1CBF63
:1040BC0052EA430E02E061460020B0BD24423C446B
:1040CC001BD15FEA070EF6D0090302BF01460020A0
:1040DC00AEF1140EB1FA81F7AEEB070401FA07FE4C
:1040EC000C37C7F1200100FA07F7C8404EEA000E62
:1040FC0023EA455343F48013A2E733F00043B3FAA9
:10410C0083F704BFB2FA82FE77440B3FE41BB7F18E
:10411C00200E2FBF02FA0EF3BB40C7F1200E22FA7D
:10412C000EFE38BF43EA0E03BA40641C82E750EA25
:10413C00410E14BF52EA430E6FF000014FF400170A
:10414C0017EB430F8ABF194617EB410FB5E74CEA43
:10415C0005510020B0BDD4F10104B4F120070FDAF1
:10416C00C4F12007520828BF42F0010210FA07F5EB
:10417C0001FA07F7E1BF2A43E0403843E1400FE082
:10418C00352C98DCC7F1200452EA400220FA07F2E1
:10419C0018BF42F0010231FA07F0A1400A43002196
:1041AC0072F1004250F1000051EB0C01B0BD000067
:1041BC00F0B44FF0004591EA030F44BF6B4000F0A0
:1041CC00C1B800BF841A71EB030604D26E40001B09
:1041DC00B141121973414FF4001C1CEB410F34BF59
:1041EC007CEB430684E00C0DA4EB1356362E7DDCE1
:1041FC00012E43DC45EAC32343EA525312BFD202D9
:10420C0092025B08240545EAC12141EA5051D2EBE8
:10421C00C020994125D407D1B0FA80F610FA06F1E6
:10422C0064D00020203608E0B1FA81F6B140C6F126
:10423C00200220FA02F21143B0404FEAF474B4EBBE
:10424C00465434F001064FEA74040AD8D6F5001629
:10425C00760D04F00044F04061FA06F25040F14053
:10426C004840C00A40EA415021F0004128BF5FEAB3
:10427C00500550F1000044EBD12137E045EAC3234F
:10428C00DB0A45EAC121C90AB6F120050EDD42EA76
:10429C000242120CC5F1200603FA06F6EB4042EA84
:1042AC0006056D42984161F100010DE062FA06F5D8
:1042BC00F240554063FA06FC82EA0C02F3405A4085
:1042CC006D42904161EB030111F4801F05D1641E16
:1042DC00620502D06D004041494121F48011430830
:1042EC0075F1004350F1000041EB0451F0BC7047F4
:1042FC001CEB410F15D223F0004352EA43060BD0BE
:10430C004FEA4C0CBCEB410F04D80C0D661E342E3E
:10431C00B7DDEBE7801A994150EA410608BF00214E
:10432C00E4E708BF1CEB430F28BF6FF00001DDE78B
:10433C00F0B44FF0004591EA030C44BF6B40FFF71B
:10434C0041BF00BF841A71EB030603D2001BB141BD
:10435C00121973414FF4001C1CEB410F34BF7CEB62
:10436C00430443E00C0DA4EB1356352E50DC45EA08
:10437C00C323DB0A45EAC121C912B6F120050DDDC4
:10438C0063FA05F6EB4086EA0305124218BF45F0C6
:10439C000105C01851F100010CD213E062FA06F5C8
:1043AC00F2405540F3415A40B340F3405A40801814
:1043BC00594107D349085FEA30005FEA350528BF49
:1043CC0045F0010501F58011420875F1004250F1EC
:1043DC00000041EB0451F0BC4FF4001C1CEB410FEE
:1043EC0038BF70470020090D090570471CEB410FC1
:1043FC0010D252EA43060BD0BCEB410F05D80C0D82
:10440C00AB43661E342EB5DD02E0AB438018594138
:10441C00F0BC7047F0BC70474FEAF17CBCF1E04C4B
:10442C002CBFBCF5001F11E05FEA4C0C34BFBCF193
:10443C007F5F2EE05FEA9C0C4FEA0C1C4FEA3C0CB1
:10444C00C10071F100414CEB50707047C90241EA58
:10445C005051C00218BF41F0010141F000414FEA38
:10446C006C50C0F10900212810D240EACC7CCCF170
:10447C00200C11FA0CF070F10040CCF1200C21FA58
:10448C000CF00CF0004C40EB0C0070474FEACC7079
:10449C007047490011F5001F04D84FEACC10FF30CB
:1044AC00C0057047C817704740EA010C5FEA4C0C16
:1044BC0007D0884205D14FEA400C1CF1807F98BF91
:1044CC0080427047DFF800F0C1C10110DFF800F046
:1044DC0009B70110DFF800F029B40110DFF800F083
:1044EC00CDA0011000B587B0009000200390029081
:1044FC0001910EE080B58DF80000012100A8FFF7B6
:10450C00F1FF02BD00B587B0002202900391019229
:10451C0000923548017C40698DF8101000A901F01B
:10452C005CFD07B000BD00B587B00090019103930E
:10453C000292EEE770B50E462C492B4C09680546E5
:10454C002B4800F05BF8E0B12674607C854217D0F4
:10455C006574606901F018FD204601F03BFD607C3C
:10456C00012804BF0FF2A000E060607C022804BFA9
:10457C000FF29800E0602146002001F01FFD606101
:10458C00012070BD1B48FDF727BE10B58AB008236B
:10459C002422002100A8FFF795FF01208DF81800B8
:1045AC0000AA114C012104F11800FFF78FFF00F055
:1045BC0015F801F0ECFC204601F00CFD01202072F6
:1045CC002146002001F0FAFC6061FF2121740021DA
:1045DC00617408B9FFF77EFF0AB010BD064909687F
:1045EC004FF44070084700003C32002000B400003B
:1045FC00A02526005432002078000010B0FBF1F109
:10460C0004F11800FFF76ABF08090000171B00002F
:10461C00002010B5044600F013F880B1002C14BF34
:10462C004FF4805000200849000A88800222091D9E
:10463C00022001F0DDFC0446FFF7A4FF204610BD6C
:10464C0044210020FFF776BF0C34002010B582B057
:10465C0000F03DF860B11020ADF80000022200A976
:10466C000220294C01F0C4FC2070FFF78BFF20784E
:10467C0016BD10B5244C207850B100F028F838B194
:10468C000020FFF737FF2070BDE81040FFF77ABF1E
:10469C0010BD70B51C4D064628780C4698B100F03C
:1046AC0016F898B10421281DFFF72CFF2870FFF78E
:1046BC0069FFA888010A41EA00203080E888010AD5
:1046CC0041EA0020208001212878297070BD432107
:1046DC000020FFF72FBF70B50C4615461E4601F0A3
:1046EC00BBF90022094BFFF791FC0022084BFFF7A6
:1046FC001FFEFFF791FE28602046FEF7B9FF054923
:10470C00FEF7C6FF306070BDEC33002000A0643FA4
:10471C00000044C00000C83A10B582B000F03EF86A
:10472C0058B118225949882001F05AFC040001D0D4
:10473C0000F0B3F8FFF726FF204616BD80B500B198
:10474C0033208DF8000000F029F818B100F0A0F823
:10475C00FFF718FF01BD38B5044600F01FF8E0B1B3
:10476C0006222146F72001F03BFC0546FFF70AFF25
:10477C0075B12078802804BF6078002804D1A17816
:10478C00481E8041C00F00E0002090F0010503D1CD
:10479C000621204601F041FC284632BD772100203D
:1047AC00FFF7C8BEF0B5447803780579240144EAD4
:1047BC000333847843EA1413C47840792D0145EA15
:1047CC00043444EA10143148068807882509E408A3
:1047DC00A4EB4604B0F9026074430688AE1BED1BD3
:1047EC007543B0F904602D137543AD1305EBE42448
:1047FC0004EB840580352D120D606110A1F57A4112
:10480C00B0F90E708C108D106C43B0F910604F43E2
:10481C00E5127F0006FB0575B0F90C60360406EB5B
:10482C00A505B0F90A6064137443B0F908607143CC
:10483C00491001EBE4018914C48801F5004161437E
:10484C00C91322D0C3F58013A3EB253340F63544AE
:10485C006343B3F1004F39BF5B00B3FBF1F1B3FB22
:10486C00F1F14900CB08B0F91640B0F91450B0F989
:10487C0012005B435B0B63438C086C43641304EBC7
:10488C002333C01801EB20101060F0BD6C330020F6
:10489C00012200A9F42001F0ABBBB6208DF800007A
:1048AC00012200A9E02001F0A3BB000080B500208C
:1048BC0000F002F8012002BD10B5044682B000F0F1
:1048CC0038F870B1002C14BF41F2C4004FF486507C
:1048DC00ADF80000022200A9012001F089FBFFF7CE
:1048EC0051FE13BD38B5044600F023F800B3022284
:1048FC0000A9012001F074FB050012D0BDF80000E6
:10490C000006C50F0DD0022200A9002001F068FBA3
:10491C00050006D0BDF80000010A41EA0020208005
:10492C0003E00221204601F078FBFFF72BFE28461E
:10493C0032BD45210020FFF7FDBD70B506463005A0
:10494C00000D01F089F804460D46300B01F084F897
:10495C0001F06EFB054A064BFFF758FB22462B462F
:10496C00FFF754FBBDE87040FFF756BD7B14AE4714
:10497C00E17A843F10B504210220FFF7DBFD0446E9
:10498C000020FFF7B7FD204610BD38B50C46FFF7E9
:10499C00B1FD844D287008B3834909684FF4FA605F
:1049AC00B0FBF1F0FDF71CFC042100A8FFF7AAFDF9
:1049BC00287098B100A99DF800004A788B781018DF
:1049CC0018189DF80330C0B298420CBF012000208B
:1049DC002870287810B162708978217032BD10B5BA
:1049EC00FFF7C8FF48B300220021212001F000FB93
:1049FC006C4C2070F0B1211D1120FFF7C6FF207008
:104A0C00C0B1A11D1220FFF7C0FF207090B104F1BE
:104A1C0008011320FFF7B9FF207058B1E088002877
:104A2C001CBF2089002803D0A08810B1012000E011
:104A3C0000202070FFF7A6FD207810BD10B5FFF701
:104A4C0099FFA8B1002200212220564C01F0D0FA87
:104A5C002070FFF797FD207848B1534953480968F7
:104A6C00B0FBF1F0FDF7BCFBFFF7B9FF207020782D
:104A7C0010BD10B54B4C2078D0B1FFF77BFF2070E8
:104A8C0098B104F10A010120FFF77FFF207060B19B
:104A9C0004F10C010220FFF778FF207028B104F11B
:104AAC000E010320FFF771FF2070FFF76BFD2078DC
:104ABC0010BD2DE9F0413B4D0446287800286FD0FD
:104ACC006889FEF7D5FD0646A888FEF7D1FD01469C
:104ADC00304601F02DFB0646A889FEF7C9FD0746B6
:104AEC00E888FEF7C5FD0146384601F021FB074674
:104AFC00E889FEF7BDFD80462889FEF7B9FD014621
:104B0C00404601F015FB1CB1022C2FD016D346E009
:104B1C003046274901F08AFB38BF264E04D326497C
:104B2C0000F0FCFC98BF0E463046FEF71DFE234CF1
:104B3C00234D00F069F8234A234B2AE038462349D9
:104B4C0001F074FB38BF224F04D3224900F0E6FC7D
:104B5C0098BF214F3846FEF707FE204C204D00F041
:104B6C0053F8204A204BFFF751FA14E01F4901F08B
:104B7C005DFB38BF084604D31D4900F0CFFC98BF3D
:104B8C001C48FEF7F1FD1C4C1C4D00F03DF80022BA
:104B9C001B4B00F06FFFBDE8F041FFF73DBC19481F
:104BAC00BDE8F081C033002000B4000000127A0090
:104BBC000BD7233D0AD7233DCDCC8C3FB81E85EBBC
:104BCC0051B8FABF85EB51B81E85F73F0BD7233C84
:104BDC000AD7233C010040400000404077BE9F1A9A
:104BEC002FDDF2BF9A9999999999C93F295C8F3D0C
:104BFC0001008C4200008C42E9263108AC1CF03FCD
:104C0C0000003440000080BF22462B46FEF7E5BF73
:104C1C00DFF800F0D9B6011030B50446674D83B00B
:104C2C0005F1440105F1500001F01AFCE8610FF2A6
:104C3C00250101F0A0FC0020019000900023604AA7
:104C4C000FF2B90105F1200000F06AFB6861AC615C
:104C5C0037BD000070B5002600240429574D18D12B
:104C6C00042001F06EFC00B9012646B12878C1067B
:104C7C0005D440F010002870FFF7CAFF68600EBB27
:104C8C002878C0061ED5A868E0B9FFF7C1FFA86058
:104C9C0018E0B9B9002001F054FC00B9012444B16A
:104CAC002878010705D440F008002870FFF7B0FF02
:104CBC00E8603CB92878000704D5286910B9FFF7DB
:104CCC00A7FF286156EA040005D1287818B1BDE881
:104CDC007040002012E005F1200000F047FB18B9ED
:104CEC0005F1200000F049FB68693549FDF770FAC1
:104CFC0005F12000BDE8704000F036BBF8B52F4C34
:104D0C0004F1200000F032FB98B92078000704D59C
:104D1C00206910B9FFF77CFF20612078C00604D50C
:104D2C00A06810B9FFF774FFA06004F1200000F038
:104D3C0024FBA16908003FD0224A25781268182D5F
:104D4C00284641F270731FD1A768D4F804C000251F
:104D5C000026BC4506D2A7EB0C0555434FF47A77D9
:104D6C00B5FBF7F52769D4F80CC0BC4506D2A7EB08
:104D7C000C0672434FF47A76B2FBF6F69D42B8BF3E
:104D8C009E4210DB1F200EE0102D0CD1A768666828
:104D9C00BE4208D2BD1B6A434FF47A75B2FBF5F2E2
:104DAC009A42A8BF172020702078884700202070D6
:104DBC006060A060E0602061F1BD0000680400202C
:104DCC00C027090000B400007CB55C4C04F12C0138
:104DDC0004F1380001F044FB60600026002000F074
:104DEC00B7F80546002004F8160004EB4601022033
:104DFC004870304600F0A6F8C1B260682A4601F04F
:104E0C00A7FB761C022EEDDB002001900090002306
:104E1C004FF4FA720FF2790104F1080000F080FAF5
:104E2C0073BDF8B505460C46022DB8BF042C2DDA1F
:104E3C0000F088F807462046404E00F089F8022C16
:104E4C0006F8154018BF032C024603D106EB4501AA
:104E5C0000204870F9B2706801F07AFB00F024F879
:104E6C00002806F1080008D000F080FA70B906F1AD
:104E7C000800BDE8F24000F077BA00F077FA28B1EC
:104E8C0006F10800BDE8F24000F077BAF1BD000071
:104E9C0080B500F01EF800F007F820B1BDE8024024
:104EAC00274800F061BA01BD0020244911F81020F8
:104EBC00032A06D0022A06D101EB40025278022ABC
:104ECC0001D001207047401CC0B20228EEDB00204C
:104EDC0070472DE9F0410024184D15F81400D5F851
:104EEC000480032805EB44070FD1E0B200F02AF848
:104EFC0006467878012803D100F02AF8002111E049
:104F0C00002000F025F801210CE0022810D178785F
:104F1C0002280DD0E0B200F015F80646002000F093
:104F2C0017F8022179700246F1B2404601F010FBED
:104F3C00641C022CD1DBBDE8F0810000B005002020
:104F4C00B80500200A21012808BF0F210846704728
:104F5C000021401E022898BF01210846704700001E
:104F6C00DFF800F049C10110DFF800F019C20110A0
:104F7C00DFF800F03DC10110DFF800F099B201102C
:104F8C00DFF800F029AF0110DFF800F0DDB20110FE
:104F9C0020B1082330220021FFF7EABF7047FFF74A
:104FAC00DFBFFFF7E1BF10B51620FFF7E5FFDFF815
:104FBC007C42201DFDF710F9206801001CBFBDE8E4
:104FCC001040004710BD80B51D20FFF7D5FFDFF85E
:104FDC006002006801001CBFBDE80240004701BD33
:104FEC0000B589B008232422002100A8FFF76AFA33
:104FFC0001208DF8180000AA0021DFF83802FFF715
:10500C0065FA09B000BDF0B5DFF82C42DFF82C5280
:10501C00A469045D082824BFDFF8245208382F1D2A
:10502C004600D7F800C04FF0030E0EFA06FE2CEA2D
:10503C000E0C01FA06F646EA0C063E600126864086
:10504C002F68F643374083403B432B60090C05F136
:10505C00180301FA00F01D683540284318601868E1
:10506C0008203AB1012A08D0B2F1FF3F07D146F22D
:10507C00080004E042F2080001E044F20800DFF806
:10508C00C4110851F0BDDFF8B0219269805C002298
:10509C0039B1012908D0B1F1FF3F07D14FF4C0421B
:1050AC0004E04FF4005201E04FF48042DFF8941119
:1050BC000A50704770B5DFF890518EB029684907D7
:1050CC0048BF02205AD4DFF87041DFF880610146F6
:1050DC002022201DFDF722F8FF2030600120706592
:1050EC00E2892169DFF86801FDF718F8E06980476B
:1050FC005848594A42F22B01016040F62B3141606D
:10510C004FF4807111600021416301218161B16014
:10511C00B164B06CFFF724FF296841F004012960E9
:10512C004E490A6822F07C5242F034520A60FFF772
:10513C001BFF4B48006801A8FFF72AFF00F020F87E
:10514C00484A162104F12400FFF71AFF162001F03B
:10515C00E9FA1620FFF718FF01A8FFF719FF00F076
:10516C000FF8414A1D2104F14000FFF709FF1D20F3
:10517C0001F0D8FA1D20FFF707FF00200EB070BD1C
:10518C000020ADF81C00009001AB7047F8B5044648
:10519C000D46FFF7E5FE284E317811B1FFF7E4FE1E
:1051AC0025E001213170FFF7DFFEE80709D57068B3
:1051BC000088B1890843204203D0002030700220BF
:1051CC00F2BD244FF868C0070FD50120F863F868CA
:1051DC00C007FCD4E90770680BD40021C180A90773
:1051EC004EBF04810021018108E0002030700120B5
:1051FC00F2BDC480B1892143B181F0E769074EBF8C
:10520C00448100214181162001F08CFA1620FFF711
:10521C00BBFE386840F040003860386820F0400031
:10522C00386000203070F2BD0121AFE7D43200208D
:10523C0018340020D83200205031002000100C40CF
:10524C0000200C40001008401010094000600C4079
:10525C0000000E4000500C4000100E400030094081
:10526C002C200940B34F0000D34F000080B5002321
:10527C004FF0FF324FF001110620FFF7C4FEBDE8DE
:10528C00005000234FF0FF324FF001110520FFF7C3
:10529C00BABE80B54FF0FF310620FFF7F4FEBDE833
:1052AC0004404FF0FF310520FFF7EDBE114AD060EE
:1052BC001161106840F4A02010600F480168890942
:1052CC00890141F025010160704738B50446FFF7AC
:1052DC0066FE0546094802684068000C40EA024038
:1052EC0021460830FFF7E2FF2846BDE83240FFF7C1
:1052FC0058BE000014200940043009400820094021
:10530C00DFF800F085C10110DFF800F025C20110B4
:10531C00DFF800F0E3BF0110DFF800F079B5011001
:10532C00F0B589B004460D4616461F4608232422C4
:10533C00002100A8FFF7E4FF0F98114909680690B7
:10534C0000AB4FF47A70B0FBF1F101FB07F0059064
:10535C0001FB06F20E98ADF8100029462046FFF727
:10536C00DBFF204609B0F0BDFFF7D2BF80B501F0DE
:10537C00D0F900B10120C0B202BDFFF7C5BF0000DB
:10538C0000B4000070B5424E044630780D4630B97A
:10539C000FF275021421FBF723F9012030700C2059
:1053AC00FCF782FC08B9102070BD0021016004716B
:1053BC008560716811B9706004E011460A68002AB2
:1053CC00FBD10860002070BD0192012200920322E3
:1053DC00FBF75FF909B000BD00B589B000F007F824
:1053EC000A9A04920022039201220192EEE78DF8B0
:1053FC001C20120A8DF81D20029307AA0692002386
:10540C000222059270470000416801F00302012A54
:10541C0005D1C1F38001002908BF00F002B80120BA
:10542C00704710B502681A4B117D5B6800E01B6871
:10543C0093B11C798C42FAD1996869B1928822B1E6
:10544C00032A11D0062A13D01FE04268C2F3C0020F
:10545C0042B9C07A10B118E0012010BD08680100F3
:10546C0018BF8047002411E000F014F804460DE04A
:10547C0042680024C2F3C00242B9C07A022804D8A0
:10548C0009690A0002D0884700E00124204610BDBB
:10549C00F43300201CB504466068C0F3C00000283B
:1054AC00E07A24D130B94968080029D000F02AF8F4
:1054BC00884725E001281BD10020ADF8040000210D
:1054CC002068009101AB8188007D0022FBF738FE3B
:1054DC00BDF80400A0B12068A17ABDF804200091A9
:1054EC000123811D007DFFF777FFFF2016BD08B15A
:1054FC00012016BDC968080002D000F003F88847E7
:10550C00002016BD2068801D0090E068027840786D
:10551C0002EB0020ADF8040000A870474FF0807C2F
:10552C001CEB400F94BF1CEB410F05E040EA010C53
:10553C005FEA4C0C01D28142704718BF8842704719
:10554C00F446400D40EAC120490006D200F00EF8A6
:10555C00004248BF6FF00040604700F007F84FF082
:10556C00004188428CBF08464042604740F00040F2
:10557C00490DA1F58061491C05D4D1F11F0154BF1F
:10558C00C840C01770474FF0000070472DE9F64D2A
:10559C0003B4C1F30A5040F2FF71884284B00CD1BD
:1055AC0005980027000304BF0498002802D1059831
:1055BC00002817D4DDE904010EE101280BDA04A858
:1055CC0000F09AF9012806DB00F006FA22210160AE
:1055DC0000209F4900E1059A40F2FE3161F31E5212
:1055EC000592471A0598002808D500F0F5F92121F5
:1055FC0001604FF0FF306FF00041EDE0DDE9040198
:10560C00944A954B00F006FA09D2DDE904230020F8
:10561C004FF08041FEF7FAFCCDE904017F1EDDE975
:10562C00042300208D49FEF783FEDDE904230446A4
:10563C000D4600208A49FEF77BFE02460B462046AB
:10564C00294600F017FA82468B4652465B46FEF717
:10565C00DDFC064688468348834932464346FEF7BE
:10566C00D5FC824A824BFEF763FE32464346FEF778
:10567C00CDFC804A804BFEF75BFE32464346FEF77C
:10568C00C5FC7E4A7E4BFEF753FE32464346FEF780
:10569C00BDFC7C4A7C4BFEF74BFE32464346FEF784
:1056AC00B5FC7A4A7A4BFEF743FE32464346FEF788
:1056BC00ADFC784A784BFEF73BFE32464346FEF78C
:1056CC00A5FC02460B4620462946FEF771FD5246C4
:1056DC005B46FEF79BFC0646884638B200F0B2F9F2
:1056EC00074607988B46C8B96C486D493A465B46E5
:1056FC00FEF78CFC32464346FEF75AFD22462B46FB
:10570C00FEF716FE04460D464FF0404065493A46FA
:10571C005B46FEF77BFC22462B465BE0012836DB22
:10572C000020614922462B46FEF770FCCDE90201B0
:10573C0022465E485E492B46FEF768FCCDE9000127
:10574C003A465C485C495B46FEF760FC04460D46F5
:10575C0030464146594A544BFEF758FC02460B461C
:10576C0020462946FEF724FDDDE90023FEF7E0FD87
:10577C00DDE90223FEF7DCFD04460D46002050490E
:10578C003A465B46FEF742FC22462B4622E04FF09F
:10579C00C0404C4922462B46FEF738FCCDE90001AF
:1057AC002246494849492B46FEF730FC04460D4633
:1057BC004748444932464346FEF728FC02460B460E
:1057CC0020462946FEF7F4FCDDE90023FEF7B0FD88
:1057DC003A465B46FEF7ACFD08B0BDE8F08D38B537
:1057EC0004460D461F48204922462B46FEF70EFC68
:1057FC001E4A1F4BFEF79CFD22462B46FEF706FC6D
:10580C001C4A1D4BFEF794FD22462B46FEF7FEFB71
:10581C001A4A1B4BFEF78CFD22462B46FEF7F6FB75
:10582C00184A194BFEF784FD22462B46FEF7EEFB79
:10583C00164A174BFEF77CFD22462B46FEF7E6FB7D
:10584C0001B0BDE83040134A134BFEF771BD0000A8
:10585C000000F0FFCD3B7F669EA0E63F0000F0BF4E
:10586C000000F03FF7DE29BFD8F8C23FF4B3FECCFE
:10587C001A99C33F62CB68D96F46C73FC6C912DAC3
:10588C00C471CC3F4AE98A942449D23FF75F979977
:10589C009999D93FBC5555555555E53F9EBC9AF73E
:1058AC001C7D7F3E422EE63F7BCBDB3FABA6320E10
:1058BC00E526553E7CC4BC7FDE27743E0EE52615DE
:1058CC001344D33F4715F73F44DF5DF80BAE543E0E
:1058DC00FE822B6540000DD2010E7F390AD4D1F126
:1058EC001F0104D4C00140F00040C84070477FF055
:1058FC00000070470020704730B4436803F000424A
:10590C0001211B031B0B436004BF0368002B08D150
:10591C000DE00368DD0F45EA440444605B0003605E
:10592C00491E4468E302F4D523031B0B4360436810
:10593C001A434260084630BC70474268C2F30A52B0
:10594C0040F2FF739A4209D14168090304BF006811
:10595C00002801D1012070470220704743685B008A
:10596C0004BF0368002B25D040F233439A1A521A15
:10597C00012A1FDB352A06DB416801F0004141603A
